{
  "_format": "hh-sol-artifact-1",
  "contractName": "Enroll",
  "sourceName": "contracts/Enroll.sol",
  "abi": [
    {
      "inputs": [],
      "stateMutability": "nonpayable",
      "type": "constructor"
    },
    {
      "anonymous": false,
      "inputs": [
        {
          "indexed": true,
          "internalType": "string",
          "name": "userId",
          "type": "string"
        },
        {
          "indexed": true,
          "internalType": "string",
          "name": "courseId",
          "type": "string"
        },
        {
          "indexed": false,
          "internalType": "uint256",
          "name": "timestamp",
          "type": "uint256"
        }
      ],
      "name": "EnrollmentAdded",
      "type": "event"
    },
    {
      "inputs": [
        {
          "internalType": "string",
          "name": "userId",
          "type": "string"
        },
        {
          "internalType": "string",
          "name": "courseId",
          "type": "string"
        },
        {
          "internalType": "uint256",
          "name": "coursePrice",
          "type": "uint256"
        },
        {
          "internalType": "address payable",
          "name": "recipient",
          "type": "address"
        }
      ],
      "name": "enroll",
      "outputs": [],
      "stateMutability": "payable",
      "type": "function"
    },
    {
      "inputs": [],
      "name": "getAllEnrollments",
      "outputs": [
        {
          "components": [
            {
              "internalType": "string",
              "name": "courseId",
              "type": "string"
            },
            {
              "internalType": "string",
              "name": "userId",
              "type": "string"
            },
            {
              "internalType": "uint256",
              "name": "timestamp",
              "type": "uint256"
            }
          ],
          "internalType": "struct Enroll.Enrollment[]",
          "name": "",
          "type": "tuple[]"
        }
      ],
      "stateMutability": "view",
      "type": "function"
    },
    {
      "inputs": [
        {
          "internalType": "string",
          "name": "userId",
          "type": "string"
        },
        {
          "internalType": "string",
          "name": "courseId",
          "type": "string"
        }
      ],
      "name": "getByUserIdAndCourseId",
      "outputs": [
        {
          "components": [
            {
              "internalType": "string",
              "name": "courseId",
              "type": "string"
            },
            {
              "internalType": "string",
              "name": "userId",
              "type": "string"
            },
            {
              "internalType": "uint256",
              "name": "timestamp",
              "type": "uint256"
            }
          ],
          "internalType": "struct Enroll.Enrollment",
          "name": "",
          "type": "tuple"
        }
      ],
      "stateMutability": "view",
      "type": "function"
    },
    {
      "inputs": [
        {
          "internalType": "string",
          "name": "userId",
          "type": "string"
        }
      ],
      "name": "getCoursesByUser",
      "outputs": [
        {
          "components": [
            {
              "internalType": "string",
              "name": "courseId",
              "type": "string"
            },
            {
              "internalType": "string",
              "name": "userId",
              "type": "string"
            },
            {
              "internalType": "uint256",
              "name": "timestamp",
              "type": "uint256"
            }
          ],
          "internalType": "struct Enroll.Enrollment[]",
          "name": "",
          "type": "tuple[]"
        }
      ],
      "stateMutability": "view",
      "type": "function"
    },
    {
      "inputs": [
        {
          "internalType": "string",
          "name": "courseId",
          "type": "string"
        }
      ],
      "name": "getUsersByCourse",
      "outputs": [
        {
          "components": [
            {
              "internalType": "string",
              "name": "courseId",
              "type": "string"
            },
            {
              "internalType": "string",
              "name": "userId",
              "type": "string"
            },
            {
              "internalType": "uint256",
              "name": "timestamp",
              "type": "uint256"
            }
          ],
          "internalType": "struct Enroll.Enrollment[]",
          "name": "",
          "type": "tuple[]"
        }
      ],
      "stateMutability": "view",
      "type": "function"
    },
    {
      "inputs": [],
      "name": "owner",
      "outputs": [
        {
          "internalType": "address payable",
          "name": "",
          "type": "address"
        }
      ],
      "stateMutability": "view",
      "type": "function"
    },
    {
      "inputs": [],
      "name": "withdraw",
      "outputs": [],
      "stateMutability": "nonpayable",
      "type": "function"
    },
    {
      "stateMutability": "payable",
      "type": "receive"
    }
  ],
  "bytecode": "0x608060405234801561001057600080fd5b5033600360006101000a81548173ffffffffffffffffffffffffffffffffffffffff021916908373ffffffffffffffffffffffffffffffffffffffff160217905550611b47806100616000396000f3fe6080604052600436106100745760003560e01c80638da5cb5b1161004e5780638da5cb5b146100de5780639051ec1e14610109578063dfe74b1214610146578063ee3dcf79146101835761007b565b8063322215b1146100805780633ccfd60b1461009c57806355f213d6146100b35761007b565b3661007b57005b600080fd5b61009a60048036038101906100959190611121565b6101c0565b005b3480156100a857600080fd5b506100b16104d1565b005b3480156100bf57600080fd5b506100c86105cc565b6040516100d59190611367565b60405180910390f35b3480156100ea57600080fd5b506100f36108f3565b6040516101009190611398565b60405180910390f35b34801561011557600080fd5b50610130600480360381019061012b91906113b3565b610919565b60405161013d9190611367565b60405180910390f35b34801561015257600080fd5b5061016d600480360381019061016891906113fc565b610ac4565b60405161017a91906114cb565b60405180910390f35b34801561018f57600080fd5b506101aa60048036038101906101a591906113b3565b610d67565b6040516101b79190611367565b60405180910390f35b818160006601c6bf52634000905082816101da919061151c565b34101561021c576040517f08c379a0000000000000000000000000000000000000000000000000000000008152600401610213906115ad565b60405180910390fd5b600360009054906101000a900473ffffffffffffffffffffffffffffffffffffffff1673ffffffffffffffffffffffffffffffffffffffff166108fc829081150290604051600060405180830381858888f19350505050158015610284573d6000803e3d6000fd5b508173ffffffffffffffffffffffffffffffffffffffff166108fc849081150290604051600060405180830381858888f193505050501580156102cb573d6000803e3d6000fd5b5060004290506000886040516102e19190611609565b908152602001604051809103902060405180606001604052808981526020018a81526020018381525090806001815401808255809150506001900390600052602060002090600302016000909190919091506000820151816000019081610348919061182c565b50602082015181600101908161035e919061182c565b5060408201518160020155505060018760405161037b9190611609565b908152602001604051809103902060405180606001604052808981526020018a815260200183815250908060018154018082558091505060019003906000526020600020906003020160009091909190915060008201518160000190816103e2919061182c565b5060208201518160010190816103f8919061182c565b5060408201518160020155505060016000896040516104179190611609565b9081526020016040518091039020805490500361046457600288908060018154018082558091505060019003906000526020600020016000909190919091509081610462919061182c565b505b866040516104729190611609565b6040518091039020886040516104889190611609565b60405180910390207fc0da481b08ea8f4b433c277f12e94ec328a0fadff3db0d4321e7a733e78b4479836040516104bf919061190d565b60405180910390a35050505050505050565b600360009054906101000a900473ffffffffffffffffffffffffffffffffffffffff1673ffffffffffffffffffffffffffffffffffffffff163373ffffffffffffffffffffffffffffffffffffffff1614610561576040517f08c379a000000000000000000000000000000000000000000000000000000000815260040161055890611974565b60405180910390fd5b600360009054906101000a900473ffffffffffffffffffffffffffffffffffffffff1673ffffffffffffffffffffffffffffffffffffffff166108fc479081150290604051600060405180830381858888f193505050501580156105c9573d6000803e3d6000fd5b50565b6060600080600090505b600280549050811015610642576000600282815481106105f9576105f8611994565b5b906000526020600020016040516106109190611a46565b9081526020016040518091039020805490508261062d919061151c565b9150808061063a90611a5d565b9150506105d6565b5060008167ffffffffffffffff81111561065f5761065e610f62565b5b60405190808252806020026020018201604052801561069857816020015b610685610f12565b81526020019060019003908161067d5790505b5090506000805b6002805490508110156108e957600080600283815481106106c3576106c2611994565b5b906000526020600020016040516106da9190611a46565b9081526020016040518091039020805480602002602001604051908101604052809291908181526020016000905b82821015610868578382906000526020600020906003020160405180606001604052908160008201805461073b9061164f565b80601f01602080910402602001604051908101604052809291908181526020018280546107679061164f565b80156107b45780601f10610789576101008083540402835291602001916107b4565b820191906000526020600020905b81548152906001019060200180831161079757829003601f168201915b505050505081526020016001820180546107cd9061164f565b80601f01602080910402602001604051908101604052809291908181526020018280546107f99061164f565b80156108465780601f1061081b57610100808354040283529160200191610846565b820191906000526020600020905b81548152906001019060200180831161082957829003601f168201915b5050505050815260200160028201548152505081526020019060010190610708565b50505050905060005b81518110156108d45781818151811061088d5761088c611994565b5b60200260200101518585815181106108a8576108a7611994565b5b602002602001018190525083806108be90611a5d565b94505080806108cc90611a5d565b915050610871565b505080806108e190611a5d565b91505061069f565b5081935050505090565b600360009054906101000a900473ffffffffffffffffffffffffffffffffffffffff1681565b606060018260405161092b9190611609565b9081526020016040518091039020805480602002602001604051908101604052809291908181526020016000905b82821015610ab9578382906000526020600020906003020160405180606001604052908160008201805461098c9061164f565b80601f01602080910402602001604051908101604052809291908181526020018280546109b89061164f565b8015610a055780601f106109da57610100808354040283529160200191610a05565b820191906000526020600020905b8154815290600101906020018083116109e857829003601f168201915b50505050508152602001600182018054610a1e9061164f565b80601f0160208091040260200160405190810160405280929190818152602001828054610a4a9061164f565b8015610a975780601f10610a6c57610100808354040283529160200191610a97565b820191906000526020600020905b815481529060010190602001808311610a7a57829003601f168201915b5050505050815260200160028201548152505081526020019060010190610959565b505050509050919050565b610acc610f12565b60008084604051610add9190611609565b9081526020016040518091039020805480602002602001604051908101604052809291908181526020016000905b82821015610c6b5783829060005260206000209060030201604051806060016040529081600082018054610b3e9061164f565b80601f0160208091040260200160405190810160405280929190818152602001828054610b6a9061164f565b8015610bb75780601f10610b8c57610100808354040283529160200191610bb7565b820191906000526020600020905b815481529060010190602001808311610b9a57829003601f168201915b50505050508152602001600182018054610bd09061164f565b80601f0160208091040260200160405190810160405280929190818152602001828054610bfc9061164f565b8015610c495780601f10610c1e57610100808354040283529160200191610c49565b820191906000526020600020905b815481529060010190602001808311610c2c57829003601f168201915b5050505050815260200160028201548152505081526020019060010190610b0b565b50505050905060005b8151811015610d255783604051602001610c8e9190611609565b60405160208183030381529060405280519060200120828281518110610cb757610cb6611994565b5b602002602001015160000151604051602001610cd39190611609565b6040516020818303038152906040528051906020012003610d1257818181518110610d0157610d00611994565b5b602002602001015192505050610d61565b8080610d1d90611a5d565b915050610c74565b506040517f08c379a0000000000000000000000000000000000000000000000000000000008152600401610d5890611af1565b60405180910390fd5b92915050565b6060600082604051610d799190611609565b9081526020016040518091039020805480602002602001604051908101604052809291908181526020016000905b82821015610f075783829060005260206000209060030201604051806060016040529081600082018054610dda9061164f565b80601f0160208091040260200160405190810160405280929190818152602001828054610e069061164f565b8015610e535780601f10610e2857610100808354040283529160200191610e53565b820191906000526020600020905b815481529060010190602001808311610e3657829003601f168201915b50505050508152602001600182018054610e6c9061164f565b80601f0160208091040260200160405190810160405280929190818152602001828054610e989061164f565b8015610ee55780601f10610eba57610100808354040283529160200191610ee5565b820191906000526020600020905b815481529060010190602001808311610ec857829003601f168201915b5050505050815260200160028201548152505081526020019060010190610da7565b505050509050919050565b60405180606001604052806060815260200160608152602001600081525090565b6000604051905090565b600080fd5b600080fd5b600080fd5b600080fd5b6000601f19601f8301169050919050565b7f4e487b7100000000000000000000000000000000000000000000000000000000600052604160045260246000fd5b610f9a82610f51565b810181811067ffffffffffffffff82111715610fb957610fb8610f62565b5b80604052505050565b6000610fcc610f33565b9050610fd88282610f91565b919050565b600067ffffffffffffffff821115610ff857610ff7610f62565b5b61100182610f51565b9050602081019050919050565b82818337600083830152505050565b600061103061102b84610fdd565b610fc2565b90508281526020810184848401111561104c5761104b610f4c565b5b61105784828561100e565b509392505050565b600082601f83011261107457611073610f47565b5b813561108484826020860161101d565b91505092915050565b6000819050919050565b6110a08161108d565b81146110ab57600080fd5b50565b6000813590506110bd81611097565b92915050565b600073ffffffffffffffffffffffffffffffffffffffff82169050919050565b60006110ee826110c3565b9050919050565b6110fe816110e3565b811461110957600080fd5b50565b60008135905061111b816110f5565b92915050565b6000806000806080858703121561113b5761113a610f3d565b5b600085013567ffffffffffffffff81111561115957611158610f42565b5b6111658782880161105f565b945050602085013567ffffffffffffffff81111561118657611185610f42565b5b6111928782880161105f565b93505060406111a3878288016110ae565b92505060606111b48782880161110c565b91505092959194509250565b600081519050919050565b600082825260208201905092915050565b6000819050602082019050919050565b600081519050919050565b600082825260208201905092915050565b60005b8381101561122657808201518184015260208101905061120b565b60008484015250505050565b600061123d826111ec565b61124781856111f7565b9350611257818560208601611208565b61126081610f51565b840191505092915050565b6112748161108d565b82525050565b600060608301600083015184820360008601526112978282611232565b915050602083015184820360208601526112b18282611232565b91505060408301516112c6604086018261126b565b508091505092915050565b60006112dd838361127a565b905092915050565b6000602082019050919050565b60006112fd826111c0565b61130781856111cb565b935083602082028501611319856111dc565b8060005b85811015611355578484038952815161133685826112d1565b9450611341836112e5565b925060208a0199505060018101905061131d565b50829750879550505050505092915050565b6000602082019050818103600083015261138181846112f2565b905092915050565b611392816110e3565b82525050565b60006020820190506113ad6000830184611389565b92915050565b6000602082840312156113c9576113c8610f3d565b5b600082013567ffffffffffffffff8111156113e7576113e6610f42565b5b6113f38482850161105f565b91505092915050565b6000806040838503121561141357611412610f3d565b5b600083013567ffffffffffffffff81111561143157611430610f42565b5b61143d8582860161105f565b925050602083013567ffffffffffffffff81111561145e5761145d610f42565b5b61146a8582860161105f565b9150509250929050565b600060608301600083015184820360008601526114918282611232565b915050602083015184820360208601526114ab8282611232565b91505060408301516114c0604086018261126b565b508091505092915050565b600060208201905081810360008301526114e58184611474565b905092915050565b7f4e487b7100000000000000000000000000000000000000000000000000000000600052601160045260246000fd5b60006115278261108d565b91506115328361108d565b925082820190508082111561154a576115496114ed565b5b92915050565b600082825260208201905092915050565b7f496e73756666696369656e7420616d6f756e742073656e740000000000000000600082015250565b6000611597601883611550565b91506115a282611561565b602082019050919050565b600060208201905081810360008301526115c68161158a565b9050919050565b600081905092915050565b60006115e3826111ec565b6115ed81856115cd565b93506115fd818560208601611208565b80840191505092915050565b600061161582846115d8565b915081905092915050565b7f4e487b7100000000000000000000000000000000000000000000000000000000600052602260045260246000fd5b6000600282049050600182168061166757607f821691505b60208210810361167a57611679611620565b5b50919050565b60008190508160005260206000209050919050565b60006020601f8301049050919050565b600082821b905092915050565b6000600883026116e27fffffffffffffffffffffffffffffffffffffffffffffffffffffffffffffffff826116a5565b6116ec86836116a5565b95508019841693508086168417925050509392505050565b6000819050919050565b600061172961172461171f8461108d565b611704565b61108d565b9050919050565b6000819050919050565b6117438361170e565b61175761174f82611730565b8484546116b2565b825550505050565b600090565b61176c61175f565b61177781848461173a565b505050565b5b8181101561179b57611790600082611764565b60018101905061177d565b5050565b601f8211156117e0576117b181611680565b6117ba84611695565b810160208510156117c9578190505b6117dd6117d585611695565b83018261177c565b50505b505050565b600082821c905092915050565b6000611803600019846008026117e5565b1980831691505092915050565b600061181c83836117f2565b9150826002028217905092915050565b611835826111ec565b67ffffffffffffffff81111561184e5761184d610f62565b5b611858825461164f565b61186382828561179f565b600060209050601f8311600181146118965760008415611884578287015190505b61188e8582611810565b8655506118f6565b601f1984166118a486611680565b60005b828110156118cc578489015182556001820191506020850194506020810190506118a7565b868310156118e957848901516118e5601f8916826117f2565b8355505b6001600288020188555050505b505050505050565b6119078161108d565b82525050565b600060208201905061192260008301846118fe565b92915050565b7f4f6e6c7920746865206f776e65722063616e2077697468647261770000000000600082015250565b600061195e601b83611550565b915061196982611928565b602082019050919050565b6000602082019050818103600083015261198d81611951565b9050919050565b7f4e487b7100000000000000000000000000000000000000000000000000000000600052603260045260246000fd5b600081546119d08161164f565b6119da81866115cd565b945060018216600081146119f55760018114611a0a57611a3d565b60ff1983168652811515820286019350611a3d565b611a1385611680565b60005b83811015611a3557815481890152600182019150602081019050611a16565b838801955050505b50505092915050565b6000611a5282846119c3565b915081905092915050565b6000611a688261108d565b91507fffffffffffffffffffffffffffffffffffffffffffffffffffffffffffffffff8203611a9a57611a996114ed565b5b600182019050919050565b7f456e726f6c6c6d656e74206e6f7420666f756e64000000000000000000000000600082015250565b6000611adb601483611550565b9150611ae682611aa5565b602082019050919050565b60006020820190508181036000830152611b0a81611ace565b905091905056fea2646970667358221220e0b85f302ce684ccb3d81de7bafe0f0ebea3aad53acda47fb9f22f52282e272264736f6c63430008130033",
  "linkReferences": {},
  "deployedLinkReferences": {}
}